:0400000043EF03F0D7
:08000800046ED8CF05F0E0CF33
:1000100006F00001E9CF0CF0EACF07F0E1CF08F0DD
:10002000E2CF09F0D9CF0AF0DACF0BF0F3CF12F01C
:10003000F4CF13F0FACF14F000C00EF001C00FF0AF
:1000400002C010F003C011F09DA02AEF00F09EB096
:1000500092EF00F09DAA30EF00F09EBA81EF00F021
:100060000EC000F00FC001F010C002F011C003F08C
:100070000CC0E9FF07C0EAFF078E08C0E1FF09C016
:10008000E2FF0AC0D9FF0BC0DAFF12C0F3FF13C0B2
:10009000F4FF14C0FAFF045006C0E0FF05C0D8FF0B
:1000A000100094908B90080E016E00D00000018E1D
:1000B0000ED0019E5532D8B08B80D8A08B90018C89
:1000C00006D0019C012EF6D700D000008B80A70E31
:1000D000E96EE92EFED700D001BEEBD701BCF1D707
:1000E00012000900F5520CE0F6CF53F0F7CF54F0B0
:1000F000F5CF55F0D6DF53C0F6FF54C0F7FFF1D768
:1001000012004784160EF66E010EF76EEADF9D9A16
:100110009E9A30EF00F00A20696E746572727570F5
:1001200074656400CE50CFCF03F0DC0F536E0B0E1E
:10013000CF20556AD894D8B0552ACF6E53C0CEFF81
:10014000010E4926D8B04A2AD8B44B2AD8B44C2A32
:100150004CBE0DD04C5207E14B5205E14A5203E12F
:100160004950040804E24C6A4B6A4A6A496A49C029
:1001700000F04A50036E03E1010E005C11E00350F1
:1001800003E1020E005C3DE0035003E1030E005C5E
:1001900069E0035004E1040E005CD8B494D0C3D0ED
:1001A00093968A9693948A8493928A8293908A8073
:1001B000938E81BE07D0310E486E4C684B684A68FA
:1001C000D80E496E938C81BC07D0340E486E4C68B3
:1001D0004B684A68D80E496E938A81BA07D0370EA9
:1001E000486E4C684B684A68D80E496E938881B84F
:1001F00007D02A0E486E4C684B684A68D80E496E84
:1002000092D093968A8693948A9493928A829390BA
:100210008A80938E81BE07D0320E486E4C684B6840
:100220004A68D80E496E938C81BC07D0350E486E53
:100230004C684B684A68D80E496E938A81BA07D0D9
:10024000380E486E4C684B684A68D80E496E9388E1
:1002500081B807D0300E486E4C684B684A68D80E9B
:10026000496E61D093968A8693948A8493928A92F7
:1002700093908A80938E81BE07D0330E486E4C686F
:100280004B684A68D80E496E938C81BC07D0360EF5
:10029000486E4C684B684A68D80E496E938A81BA9A
:1002A00007D0390E486E4C684B684A68D80E496EC4
:1002B000938881B807D0230E486E4C684B684A6813
:1002C000D80E496E30D093968A8693948A849392FE
:1002D0008A8293908A90938E81BE07D0410E486E99
:1002E0004C684B684A68D80E496E938C81BC07D025
:1002F000420E486E4C684B684A68D80E496E938A25
:1003000081BA07D0430E486E4C684B684A68D80ED5
:10031000496E938881B807D0440E486E4C684B688C
:100320004A68D80E496E9E9030EF00F04954532031
:10033000414C4949494956450A000A50617373774F
:100340006F726420546573743A20256325632025F9
:1003500063256320256325632025632563202563AA
:10036000256320256325630A00000A4F72696769C7
:100370006E616C20546573743A20256325632025D3
:10038000632563202563256320256325632025637A
:10039000256320256325630A00000A2050726573D7
:1003A00073656400EA6A520EE96EEF500DE0060EC6
:1003B000016E006A002EFED7012EFBD77B0E006E69
:1003C000002EFED7EF2EF3D71200516A5050515C29
:1003D0000CE295948C847D0E526EE4DF95948C949F
:1003E0007D0E526EDFDF512AF1D71200036A2C50C6
:1003F0001C0FE96E000E0320EA6E4DC0EFFF2C2AA1
:100400002C50070801E22C6A010E506EDEDF12004C
:100410004F6A4F5007080AE3036A4F501C0FE96EFA
:10042000000E0320EA6EEF6A4F2AF3D72C6A1200FF
:100430004D904E6A4E50070816E3036A4E501C0F4B
:10044000E96E000E0320EA6EEFCF4FF0036A4E50C4
:10045000240FE96E000E0320EA6EEF504F5C01E0BE
:100460004D804E2AE7D74DB009D095908C8095925B
:100470008C924782020E506EA8DF03D00A0E506E97
:10048000A4DFC6DF000E47B2010E016E90EF02F04E
:1004900095928C8295908C904792010E506E95DFCC
:1004A0001200230E485CE10F3BE21F0F94EF02F0B5
:1004B000010E4D6E9BDF34D0020E4D6E97DF30D0B3
:1004C000030E4D6E93DF2CD0040E4D6E8FDF28D0BF
:1004D000050E4D6E8BDF24D0060E4D6E87DF20D0CB
:1004E000070E4D6E83DF1CD0080E4D6E7FDF18D0D7
:1004F000090E4D6E7BDF14D04D6A78DF11D098D78E
:100500000FD086DFC5DF0CD047809A0EF66E030E43
:10051000F76E166AF2BE168EF29EE3DD16BEF28EFE
:10052000200E486EABEF03F0F2CF0DF0F29EE82400
:10053000F76AF7364D0FF66E050EF7220A00F550F2
:10054000FA6E0800F5500DBEF28EF96EFE0420051D
:100550002005200520052005200502052005200591
:10056000200520052005F804B004B804C004C80420
:10057000D004D804E004E804F00420052005200598
:1005800020052005200520050805030E505E09E31F
:10059000EA6A500EE96EEF5004E001D000D0EF2E71
:1005A000FDD7DCEF02F0060E4E6E400E4D6E020ED1
:1005B0004F6E9B0E506EE9D74F2EFBD74D2E05D0B8
:1005C0004E2E03D0176A016A0AD09EAAF0D7AB500C
:1005D000176EAE50016E17A202D0AB98AB88120016
:1005E0000900F6CF4EF0F7CF4FF0166AF2BE168E26
:1005F000F29EF5CF55F055DD16BEF28E4EC0F6FFD9
:100600004FC0F7FF4D2EECD712004D90040E4E6EEA
:100610004E50090816E3036A4E502D0FE96E000E86
:100620000320EA6EEFCF50F0036A4E503A0FE96EA6
:10063000000E0320EA6EEF50505C01E04D804E2A20
:10064000E7D74DB010D095908C8095928C924782D0
:10065000020E506EBADE0C0E506EFA0E526EA2DE14
:10066000502EFBD715DF4F6A4F500B080AE3036A81
:100670004F502D0FE96E000E0320EA6EEF6A4F2AED
:10068000F3D77DEF05F0F86AD09E078E176AB8861B
:10069000080EAF6E020EB06EA60EAC6E900EAB6E74
:1006A00094908B801B6A1A6A196A186A2C6A4790A0
:1006B00047924794200E486EC150C00B0F09C16E7F
:1006C000070EB46E0DD008401C0008800102030420
:1006D000050607081A402D2004004900000000000C
:1006E000000EF86E060EF76EC60EF66E0900F55097
:1006F000006E000A13E00900F550016EE8BE05D057
:100700000F0BEA6E0900F5CFE9FF01BC090001AC4F
:100710000900F5CFEEFF004EE9D7F9D7F86A000ED1
:10072000956EFF0E936EF19EF00E936EC00EF21258
:100730009D809D8A850ECD6EF19E95928C822C0EA9
:10074000F66E030EF76E166AF2BE168EF29EC9DCC6
:1007500016BEF28EA6D647A460D047A03AD0020EAD
:10076000506E33DE020E4D6EFA0E526E1BDE4D2EB3
:10077000FBD719DF01C03AF016DF01C03BF013DFF1
:1007800001C03CF010DF01C03DF00DDF01C03EF0C4
:100790000ADF01C03FF007DF01C040F004DF01C005
:1007A00041F001DF01C042F0FEDE01C043F0FBDE9C
:1007B00001C044F0F8DE01C045F04790050E506ED0
:1007C00004DE040E4D6EFA0E526EECDD4D2EFBD79C
:1007D00024D0E9DE01C02DF0E6DE01C02EF0E3DE1C
:1007E00001C02FF0E0DE01C030F0DDDE01C031F0ED
:1007F000DADE01C032F0D7DE01C033F0D4DE01C052
:1008000034F0D1DE01C035F0CEDE01C036F0CBDEF3
:1008100001C037F0C8DE01C038F03A0EF66E030EA4
:10082000F76E100E4D6EDCDE166AF2BE168EF29E6C
:100830002DC055F036DC16BEF28E166AF2BE168E4C
:10084000F29E2EC055F02DDC16BEF28E166AF2BE58
:10085000168EF29E200E556E24DC16BEF28E166A9F
:10086000F2BE168EF29E2FC055F01BDC16BEF28E25
:10087000166AF2BE168EF29E30C055F012DC16BE1D
:10088000F28E166AF2BE168EF29E200E556E09DCAE
:1008900016BEF28E166AF2BE168EF29E31C055F06A
:1008A00000DC16BEF28E166AF2BE168EF29E32C0C2
:1008B00055F051EC00F016BEF28E166AF2BE168E9E
:1008C000F29E200E556E51EC00F016BEF28E166AA6
:1008D000F2BE168EF29E33C055F051EC00F016BEFB
:1008E000F28E166AF2BE168EF29E34C055F051ECAE
:1008F00000F016BEF28E166AF2BE168EF29E200E22
:10090000556E51EC00F016BEF28E166AF2BE168ECF
:10091000F29E35C055F051EC00F016BEF28E166A0C
:10092000F2BE168EF29E36C055F051EC00F016BEA7
:10093000F28E166AF2BE168EF29E200E556E51ECA5
:1009400000F016BEF28E166AF2BE168EF29E37C008
:1009500055F051EC00F016BEF28E166AF2BE168EFD
:10096000F29E38C055F051EC00F016BEF28E166AB9
:10097000F2BE168EF29E0A0E556E51EC00F016BEB7
:10098000F28E6A0EF66E030EF76E100E4D6E28DEB6
:10099000166AF2BE168EF29E3AC055F051EC00F087
:1009A00016BEF28E166AF2BE168EF29E3BC055F04F
:1009B00051EC00F016BEF28E166AF2BE168EF29E52
:1009C000200E556E51EC00F016BEF28E166AF2BE85
:1009D000168EF29E3CC055F051EC00F016BEF28E21
:1009E000166AF2BE168EF29E3DC055F051EC00F034
:1009F00016BEF28E166AF2BE168EF29E200E556E4E
:100A000051EC00F016BEF28E166AF2BE168EF29E01
:100A10003EC055F051EC00F016BEF28E166AF2BEE2
:100A2000168EF29E3FC055F051EC00F016BEF28ECD
:100A3000166AF2BE168EF29E200E556E51EC00F034
:100A400016BEF28E166AF2BE168EF29E40C055F0A9
:100A500051EC00F016BEF28E166AF2BE168EF29EB1
:100A600041C055F051EC00F016BEF28E166AF2BE8F
:100A7000168EF29E200E556E51EC00F016BEF28ED0
:100A8000166AF2BE168EF29E42C055F051EC00F08E
:100A900016BEF28E166AF2BE168EF29E43C055F056
:100AA00051EC00F016BEF28E166AF2BE168EF29E61
:100AB000200E556E51EC00F016BEF28E166AF2BE94
:100AC000168EF29E44C055F051EC00F016BEF28E28
:100AD000166AF2BE168EF29E45C055F051EC00F03B
:100AE00016BEF28E166AF2BE168EF29E0A0E556E73
:100AF00051EC00F016BEF28E88D5FA0E526E52DC22
:080B00009D8A479427D60300EB
:020000040030CA
:0E00000024CC3E0E0087A1000FC00FE00F4081
:00000001FF
;PIC18F4550
;CRC=FFE1  CREATED="18-jun-23 11:04"
